:100000000C942A000C94F8030C9428040C945804C3
:100010000C94DC060C9492060C9447000C94CD05CD
:100020000C9447000C9447000C9435050C94470041
:100030000C9447000C9488040C9447000C944700DF
:100040000C9447000C9447000C9447000C94470014
:100050000C94470011241FBECFE5D8E0DEBFCDBF12
:1000600010E0A0E6B0E0ECEAFFE002C005900D92DF
:10007000A436B107D9F710E0A4E6B0E001C01D92A4
:10008000AB37B107E1F70E947A070C94D4070C94C0
:100090000000DB9A0895DB980895DC9A0895DC98B7
:1000A0000895DF9A0895DF980895DE9A0895DE98FE
:1000B0000895AF9A0895AF980895AE9A0895AE98AE
:1000C0000895AD9A0895AD980895AC9A0895AC98A6
:1000D000089595980895959A0895949A08959498F6
:1000E000089581E0089581E0089589B384700895AA
:1000F00089B38072089581E0809362000895109220
:100100006200089581E0809371000895109271005B
:10011000089581E080936E00089510926E00089516
:1001200020917400309175002E3F3F4F20F45D9B6D
:10013000FECF8CB908959BB18CB9089520917800B9
:10014000309179002F5F3F4F3093790020937800F2
:1001500020917400309175002E3F3F4F08F0A9C0E8
:100160005D9BFECF9CEC9CB9209174003091750092
:100170002E3F3F4F08F09BC05D9BFECF9CEC9CB98F
:100180009091790020917400309175002E3F3F4F7F
:1001900008F08BC05D9BFECF9CB9909178002091B8
:1001A0007400309175002E3F3F4F08F07CC05D9B7E
:1001B000FECF9CB920917400309175002E3F3F4FC7
:1001C00008F06FC05D9BFECF96E09CB92091740053
:1001D000309175002E3F3F4F08F061C05D9BFECF10
:1001E00091E39CB920917400309175002E3F3F4FF0
:1001F00008F053C05D9BFECF8CB980917400909144
:1002000075008E3F9F4F08F046C05D9BFECF82E396
:100210008CB980917400909175008E3F9F4FC8F506
:100220005D9BFECF6CB980917400909175008E3FFC
:100230009F4F68F55D9BFECF83E38CB9809174007E
:10024000909175008E3F9F4F00F55D9BFECF4CB99E
:1002500080917400909175008E3F9F4FA0F45D9B3C
:10026000FECF8FE18CB980917400909175008E3F24
:100270009F4F28F45D9BFECF8FE18CB908958BB121
:100280008FE18CB908958BB1ECCF8BB1E0CF8BB1FE
:10029000D3CF8BB1C7CF8BB1BACF9BB1ADCF9BB111
:1002A0009FCF9BB191CF2BB184CF2BB175CF9BB199
:1002B00065CF9BB157CF20917800309179002F5FA7
:1002C0003F4F309379002093780020917400309153
:1002D00075002E3F3F4F08F072C05D9BFECF9CEC37
:1002E0009CB920917400309175002E3F3F4F08F06B
:1002F00064C05D9BFECF9CEC9CB9909179002091ED
:100300007400309175002E3F3F4F08F054C05D9B44
:10031000FECF9CB9909178002091740030917500C7
:100320002E3F3F4F08F045C05D9BFECF9CB920910A
:100330007400309175002E3F3F4FC8F55D9BFECF96
:1003400092E09CB920917400309175002E3F3F4F90
:1003500060F55D9BFECF8CB9809174009091750023
:100360008E3F9F4F00F55D9BFECF6CB9809174006E
:10037000909175008E3F9F4FA0F45D9BFECF8FE163
:100380008CB980917400909175008E3F9F4F28F436
:100390005D9BFECF8FE18CB908958BB18FE18CB955
:1003A00008958BB1ECCF8BB1E0CF9BB1D4CF9BB193
:1003B000C7CF2BB1BBCF2BB1ACCF9BB19CCF9BB1E7
:1003C0008ECF68EE80E30C945B0169EE80E30C94C1
:1003D0005B016AEE80E30C945B0166EE86E30C94AD
:1003E0005B0168EA88E30C945B0169EA88E30C949A
:1003F0005B01AC98089584EA86BF06B607FEFDCF80
:1004000081B1887F883009F0AC9881E983B984E8AC
:1004100086BF06B607FEFDCF81B1887F803409F024
:10042000AC9884EC86BF06B607FEFDCF81B1887F0D
:10043000803509F0AC9883B194E896BF06B607FE04
:10044000FDCF91B1987F983509F0AC9894E996BFAB
:1004500090E008958823F9F08130B1F096B1906C66
:1004600096B93699FECF349824B135B12656310964
:10047000882369F0813031F4369527953695279594
:10048000822F089580E0089590E497B9E7CF3695DC
:100490002795822F089591E497B9E0CF85B5877F9E
:1004A00085BD89B78F7789BF89B7806489BF10926E
:1004B00073001092720085B5876085BD089585B57B
:1004C000886085BD89B7806889BF89B78F7B89BF00
:1004D000109273001092720081E080936A0085B5DB
:1004E000876085BD089585B5886085BD89B78068BA
:1004F00089BF89B78F7B89BF1092730010927200F9
:1005000082E080936A0085B5876085BD0895C49AAE
:10051000AB9A85B5877F85BD89B78F7789BF89B746
:10052000806489BF109273001092720085B5876055
:1005300085BD0895C49AAB9A85B5877F85BD89B777
:100540008F7789BF89B7806489BF1092730010923A
:10055000720085B5876085BD089591E09093650030
:10056000C49AAB9A85B5886085BD89B7806889BF14
:1005700089B78F7B89BF109273001092720090939D
:100580006A0085B5876085BD089510926500C49A9C
:10059000AB9A85B5886085BD89B7806889BF89B702
:1005A0008F7B89BF109273001092720081E080935C
:1005B0006A0085B5876085BD089581E080936200FB
:1005C0001092770083B7856083BF08958EB58560EC
:1005D0008EBD089581E08093640090916500911133
:1005E00019C0C49AAB9A85B5877F85BD89B78F77C7
:1005F00089BF89B7806489BF10927300109272001E
:1006000085B5876085BDDF981092620067EA87E351
:100610000C945B0110926500C49AAB9A95B59860F2
:1006200095BD99B7906899BF99B79F7B99BF109274
:1006300073001092720080936A0085B5876085BD53
:10064000DF981092620067EA87E30C945B012091C7
:100650006F00309170002734334068F59FB7909356
:100660007A00F894E199FECF20916F0030917000EC
:100670003FBB2EBB8DBBE29AE19A80916F009091B7
:10068000700001969093700080936F00E199FECF07
:100690009FBB8EBB6DBBE29AE19A80916F009091F7
:1006A000700001969093700080936F007894809111
:1006B0007A008FBF0895AE9A0895109267008FB7A1
:1006C00080937A00F89481E080936B00AF988093D8
:1006D0006500C49AAB9A95B5986095BD99B7906836
:1006E00099BF99B79F7B99BF1092730010927200C7
:1006F00080936A0095B5976095BD95988093620048
:100700001092770083B7856083BF8EB585608EBDFC
:10071000789480917A008FBF68EE80E30C945B013F
:10072000109269008FB780937A00F89481E08093EB
:100730006D0028E730E030937500209374008093BB
:10074000710090916B00911129C080936B00809390
:100750006500C49AAB9A95B5986095BD99B79068B5
:1007600099BF99B79F7B99BF109273001092720046
:1007700080936A0095B5976095BD959824E630E022
:100780003093700020936F00809362001092770086
:1007900083B7856083BF8EB585608EBDAE98789433
:1007A00080917A008FBF69EE80E30C945B01109218
:1007B00068008FB780937A00F89480916D00882349
:1007C00079F081E080936C0080EF90E09093750069
:1007D000809374008EB585608EBD949ADB9AAD9837
:1007E000789480917A008FBF6AEE80E30C945B016D
:1007F0001F920F920FB60F9211248F9380916D006C
:10080000811104C080916900882331F08F910F908D
:100810000FBE0F901F90189581E08093690085B5F9
:10082000886085BD89B7806889BF89B78F7B89BF9C
:10083000109273001092720082E080936A0085B576
:10084000876085BD8F910F900FBE0F901F901895F8
:100850001F920F920FB60F9211248F9380916B000D
:10086000811104C080916700882331F08F910F902F
:100870000FBE0F901F90189581E08093670085B59B
:10088000886085BD89B7806889BF89B78F7B89BF3C
:10089000109273001092720082E080936A0085B516
:1008A000876085BD8F910F900FBE0F901F90189598
:1008B0001F920F920FB60F9211248F9380916C00AC
:1008C000811104C080916800882331F08F910F90CE
:1008D0000FBE0F901F90189581E08093680085B53A
:1008E000886085BD89B7806889BF89B78F7B89BFDC
:1008F000109273001092720082E080936A0085B5B6
:10090000876085BD8F910F900FBE0F901F90189537
:100910001F920F920FB60F9211242F933F934F9374
:100920005F936F937F938F939F93AF93BF93EF9357
:10093000FF938FB780937A00F8948CB1863609F4D0
:1009400088C008F1883609F449C008F45EC08F36C3
:1009500049F18C3C19F481E0809366007894809191
:100960007A008FBFFF91EF91BF91AF919F918F91CF
:100970007F916F915F914F913F912F910F900FBE9B
:100980000F901F901895813609F451C010F18236EE
:1009900061F0833619F70E94FB01682F83E30E9400
:1009A0005B01DCCF0E94EA02D9CF80E487B986B12F
:1009B000806C86B93699FECF349864B175B16656AD
:1009C0007109769567957695679582E30E945B013C
:1009D000C5CF8F3119F610926600C0CF80916B00A1
:1009E00081110EC080916D0081110AC080916C0050
:1009F000811106C0DB9869EA88E30E945B01AECFF3
:100A000068EA88E30E945B01A9CF80916B008111A5
:100A1000F2CF80916D008111EECF80916C00811139
:100A2000EACFDB9A68EA88E30E945B0197CF81E412
:100A300087B986B1806C86B93699FECF349864B197
:100A400075B1665671097695679581E30E945B01E1
:100A500085CFCA9905C066EA86E30E945B017ECF16
:100A600060EA86E30E945B0179CF1F920F920FB676
:100A70000F9211242F933F934F935F936F937F9324
:100A80008F939F93AF93BF93CF93DF93EF93FF9396
:100A90008FB780937A00F894809177008F5F8A30C7
:100AA000C9F080937700789480917A008FBFFF918E
:100AB000EF91DF91CF91BF91AF919F918F917F91F6
:100AC0006F915F914F913F912F910F900FBE0F90BB
:100AD0001F90189510927700809176008F5F809319
:100AE00076000E94FB0190916200911135C0D0E028
:100AF000C0E02091740030917500A90155279091B4
:100B00006600992321F02417350709F4FFCF482FF9
:100B10006D2F8C2F0E949E0080917600833019F6F5
:100B20001092760080917100882341F080916200DC
:100B3000882321F06D2F8C2F0E94270380916E0057
:100B4000882309F4B0CFCA99AECF10926E0066EE3A
:100B500086E30E945B01A7CF91E497B996B1906CB0
:100B600096B93699FECF349824B135B1265631095D
:100B700036952795C22F90E497B996B1906C96B9A7
:100B80003699FECF349864B175B166567109769581
:100B9000679576956795D62FACCF1F920F920FB6BB
:100BA0000F9211242F933F938F939F938FB780932E
:100BB0007A00F8948091740090917500019690935A
:100BC00075008093740020916400222341F02091ED
:100BD0006000309161008217930709F462C0873288
:100BE00021E0920709F49BC028F1813321E09207AC
:100BF00009F485C008F46FC0853421E09207A9F19B
:100C00008F34914029F5C49AAB9A85B5877F85BD0D
:100C100089B78F7789BF89B7806489BF10927300C5
:100C20001092720085B5876085BDAF98AE98AD987B
:100C3000AC980EC0853F910509F464C0843021E072
:100C4000920761F18336910519F481E08093710078
:100C5000789480917A008FBF9F918F913F912F91CF
:100C60000F900FBE0F901F90189510926500C49AB8
:100C7000AB9A85B5886085BD89B7806889BF89B71B
:100C80008F7B89BF109273001092720081E0809375
:100C90006A0085B5876085BDAF9ADACFDB98AD9ADB
:100CA000D7CF85B5887F85BDC49AAB9A85B5877F38
:100CB00085BD89B78F7789BF89B7806489BF109256
:100CC00073001092720085B5876085BD80917400B5
:100CD0009091750084CF8B32914009F0B9CF10927A
:100CE000620010927100959A949880916D0088230B
:100CF00009F4AECF81E080936E00AE9AA9CF109236
:100D00006E00A6CF80916D00882309F4A1CF809159
:100D10006C00882309F49CCFAC98DF9A99CFDF98B8
:100D2000AC9A96CF1F920F920FB60F9211242F9369
:100D30003F934F935F936F937F938F939F93AF9363
:100D4000BF93EF93FF938FB780937A00F8948091CD
:100D500072009091730001969093730080937200DB
:100D60008D32914048F0C498AB9885B5887F85BD99
:100D700080916400811115C0789480917A008FBFB2
:100D8000FF91EF91BF91AF919F918F917F916F9163
:100D90005F914F913F912F910F900FBE0F901F9039
:100DA00018951092640064EA84E30E945B0165EA8E
:100DB00085E30E945B01E0CF1F920F920FB60F9266
:100DC00011242F933F934F935F936F937F938F9350
:100DD0009F93AF93BF93EF93FF938FB780937A0066
:100DE000F894809172009091730001969093730033
:100DF000809372008B309105D8F020916A002130E9
:100E000061F1223051F420916900211139C0209103
:100E100068002223E9F1B29B48C0C39748F085B52A
:100E2000887F85BD1092670010926900109268005B
:100E3000789480917A008FBFFF91EF91BF91AF912D
:100E40009F918F917F916F915F914F913F912F91E2
:100E50000F900FBE0F901F901895C498AB9885B552
:100E6000887F85BD80916400882311F38091740090
:100E70009091750003969093610080936000D8CFA5
:100E80008299CBCF85B5887F85BD0E949003EACF3C
:100E900020916700222309F4C0CF8399BECF85B586
:100EA000887F85BD0E945D03DDCF85B5887F85BDC8
:100EB000109268008FB780937A00F89480916D004B
:100EC000882379F081E080936C0080EF90E090932C
:100ED0007500809374008EB585608EBD949ADB9A00
:100EE000AD98789480917A008FBF6AEE80E30E947B
:100EF0005B01B8CFD198D098D298D598BC98A398D8
:100F0000BA988B988A988AB388618ABB8AB3806CB6
:100F10008ABB81B3806381BB959A949884B3806FB8
:100F200084BBBC9AA39A85B78A7F85BF85B78A6040
:100F300085BF84B78F7B84BF8BB7806E8BBF87E103
:100F400089B98AB188698AB980E880B986B784602E
:100F500086BF86B1876086B983B7886083BF8FEE0E
:100F60008CBF88B7826088BF89B7826089BF8EB521
:100F700088608EBD88E38BBD8FE38ABD88B78061B2
:100F800088BF89B7806189BF8FE883BD88B7806CCF
:100F900088BF89B7806C89BF78940E948702AF9A16
:0C0FA000AE9AAD9AAC9AFFCFF894FFCF48
:040FAC00F0FF010051
:00000001FF
