:100000000C942A000C94FE030C9428040C945204C3
:100010000C941D070C9447000C9447000C946A063E
:100020000C9447000C9447000C9475050C94470001
:100030000C9447000C947C040C9447000C944700EB
:100040000C9447000C9447000C9447000C94470014
:100050000C94470011241FBECFE5D8E0DEBFCDBF12
:1000600010E0A0E6B0E0EAE3F0E102C005900D92F6
:10007000A436B107D9F720E0A4E6B0E001C01D9294
:10008000AD37B207E1F70E94BF070C941B080C9430
:100090000000DB9A0895DB980895DC9A0895DC98B7
:1000A0000895DF9A0895DF980895DE9A0895DE98FE
:1000B0000895AF9A0895AF980895AE9A0895AE98AE
:1000C0000895AD9A0895AD980895AC9A0895AC98A6
:1000D000089595980895959A0895949A08959498F6
:1000E000089581E0089581E0089589B384700895AA
:1000F00089B38072089581E0809362000895109220
:100100006200089581E08093730008951092730057
:10011000089581E080937000089510927000089512
:1001200020917600309177002E3F3F4F20F45D9B69
:10013000FECF8CB908959BB18CB9089520917A00B7
:1001400030917B002F5F3F4F30937B0020937A00EC
:1001500020917600309177002E3F3F4F08F0A9C0E4
:100160005D9BFECF9CEC9CB920917600309177008E
:100170002E3F3F4F08F09BC05D9BFECF9CEC9CB98F
:1001800090917B0020917600309177002E3F3F4F79
:1001900008F08BC05D9BFECF9CB990917A002091B6
:1001A0007600309177002E3F3F4F08F07CC05D9B7A
:1001B000FECF9CB920917600309177002E3F3F4FC3
:1001C00008F06FC05D9BFECF96E09CB92091760051
:1001D000309177002E3F3F4F08F061C05D9BFECF0E
:1001E00091E39CB920917600309177002E3F3F4FEC
:1001F00008F053C05D9BFECF8CB980917600909142
:1002000077008E3F9F4F08F046C05D9BFECF82E394
:100210008CB980917600909177008E3F9F4FC8F502
:100220005D9BFECF6CB980917600909177008E3FF8
:100230009F4F68F55D9BFECF83E38CB9809176007C
:10024000909177008E3F9F4F00F55D9BFECF4CB99C
:1002500080917600909177008E3F9F4FA0F45D9B38
:10026000FECF8FE18CB980917600909177008E3F20
:100270009F4F28F45D9BFECF8FE18CB908958BB121
:100280008FE18CB908958BB1ECCF8BB1E0CF8BB1FE
:10029000D3CF8BB1C7CF8BB1BACF9BB1ADCF9BB111
:1002A0009FCF9BB191CF2BB184CF2BB175CF9BB199
:1002B00065CF9BB157CF20917A0030917B002F5FA3
:1002C0003F4F30937B0020937A002091760030914D
:1002D00077002E3F3F4F08F072C05D9BFECF9CEC35
:1002E0009CB920917600309177002E3F3F4F08F067
:1002F00064C05D9BFECF9CEC9CB990917B002091EB
:100300007600309177002E3F3F4F08F054C05D9B40
:10031000FECF9CB990917A002091760030917700C1
:100320002E3F3F4F08F045C05D9BFECF9CB920910A
:100330007600309177002E3F3F4FC8F55D9BFECF92
:1003400092E09CB920917600309177002E3F3F4F8C
:1003500060F55D9BFECF8CB980917600909177001F
:100360008E3F9F4F00F55D9BFECF6CB9809176006C
:10037000909177008E3F9F4FA0F45D9BFECF8FE161
:100380008CB980917600909177008E3F9F4F28F432
:100390005D9BFECF8FE18CB908958BB18FE18CB955
:1003A00008958BB1ECCF8BB1E0CF9BB1D4CF9BB193
:1003B000C7CF2BB1BBCF2BB1ACCF9BB19CCF9BB1E7
:1003C0008ECF68EE80E30C945B0169EE80E30C94C1
:1003D0005B016AEE80E30C945B0161EA89E30C94B3
:1003E0005B0162EA89E30C945B0166EE86E30C94A0
:1003F0005B0160EA86E30C945B0168EA88E30C9495
:100400005B0169EA88E30C945B016AEA87E30C9478
:100410005B016BEA87E30C945B016CEA8AE30C9462
:100420005B016DEA8AE30C945B016EEA8AE30C944B
:100430005B016FEA8AE30C945B0160EE8BE30C9442
:100440005B0169E18CE30C945B01AC98089584EA4C
:1004500086BF06B607FEFDCF81B1887F883009F0E0
:10046000AC9881E983B984E886BF06B607FEFDCF64
:1004700081B1887F803409F0AC9884EC86BF06B6E1
:1004800007FEFDCF81B1887F803509F0AC9883B13C
:1004900094E896BF06B607FEFDCF91B1987F9835D8
:1004A00009F0AC9894E996BF90E00895882339F15B
:1004B0008130F1F096B1906C96B93699FECF3498B0
:1004C00024B135B195B1392B265631092A399FEF20
:1004D000390710F020E030E0882369F0813031F4F2
:1004E0003695279536952795822F089580E00895B3
:1004F00090E497B9DFCF36952795822F089591E440
:1005000097B9D8CF85B5886085BD89B7806889BF20
:1005100089B78F7B89BF109275001092740081E0BB
:1005200080936B0085B5876085BD089585B588602B
:1005300085BD89B7806889BF89B78F7B89BF1092D5
:1005400075001092740082E080936B0085B587601F
:1005500085BD089591E090936500C49AAB9A85B5E6
:10056000886085BD89B7806889BF89B78F7B89BF5F
:10057000109275001092740090936B0085B587609F
:1005800085BD089510926500C49AAB9A85B58860C0
:1005900085BD89B7806889BF89B78F7B89BF109275
:1005A00075001092740081E080936B0085B58760C0
:1005B00085BD089581E0809362001092790083B731
:1005C000856083BF08958EB585608EBD0895809146
:1005D00065008823D9F010926500C49AAB9A85B55E
:1005E000886085BD89B7806889BF89B78F7B89BFDF
:1005F000109275001092740081E080936B0085B5B5
:10060000876085BD6DEA8AE30E945B01DF986BEA33
:1006100087E30E945B011092620062EA89E30E9414
:100620005B0167EA87E30C945B01209171003091D4
:1006300072002734334068F59FB790937C00F8949C
:10064000E199FECF20917100309172003FBB2EBB2B
:100650008DBBE29AE19A80917100909172000196AF
:100660009093720080937100E199FECF9FBB8EBB87
:100670006DBBE29AE19A80917100909172000196AF
:100680009093720080937100789480917C008FBF6A
:100690000895AE9A0895CF93109268008FB7809313
:1006A0007C00F894C1E0C0936C00AF98C0936500E3
:1006B000C49AAB9A85B5886085BD89B7806889BFC3
:1006C00089B78F7B89BF1092750010927400C09318
:1006D0006B0085B5876085BD6CEA8AE30E945B018B
:1006E0009598C09362001092790083B7856083BFAC
:1006F00061EA89E30E945B018EB585608EBD7894C6
:1007000080917C008FBF68EE80E3CF910C945B01F9
:10071000CF9310926A008FB780937C00F894C1E069
:10072000C0936E0088E790E0909377008093760006
:10073000C093730080916C00811131C0C0936C0034
:10074000C0936500C49AAB9A85B5886085BD89B7AA
:10075000806889BF89B78F7B89BF1092750010921E
:100760007400C0936B0085B5876085BD6CEA8AE331
:100770000E945B01959884E690E0909372008093CC
:100780007100C09362001092790083B7856083BFC7
:1007900061EA89E30E945B018EB585608EBDAE98EB
:1007A000789480917C008FBF69EE80E3CF910C94A8
:1007B0005B01109269008FB780937C00F894809160
:1007C0006E00882399F081E080936D0080EF90E0C7
:1007D00090937700809376008EB585608EBD949A55
:1007E000DB9A68EA88E30E945B01AD987894809177
:1007F0007C008FBF6AEE80E30C945B011F920F9226
:100800000FB60F9211248F9380916E0081111AC040
:1008100080916A00811116C081E080936A0085B5DD
:10082000886085BD89B7806889BF89B78F7B89BF9C
:10083000109275001092740082E080936B0085B571
:10084000876085BD8F910F900FBE0F901F901895F8
:100850001F920F920FB60F9211248F9380916C000C
:1008600081111AC080916800811116C081E08093C7
:10087000680085B5886085BD89B7806889BF89B7FC
:100880008F7B89BF109275001092740082E0809374
:100890006B0085B5876085BD8F910F900FBE0F905F
:1008A0001F9018951F920F920FB60F9211248F93DD
:1008B00080916D0081111AC080916900811116C06C
:1008C00081E08093690085B5886085BD89B78068BF
:1008D00089BF89B78F7B89BF109275001092740011
:1008E00082E080936B0085B5876085BD8F910F9006
:1008F0000FBE0F901F9018951F920F920FB60F9278
:1009000011242F933F934F935F936F937F938F9314
:100910009F93AF93BF93EF93FF938FB780937C0028
:10092000F8948CB1863609F4B6C0D8F08B3609F449
:1009300060C038F5873609F462C0883651F5809179
:100940006C0081119DC080916E00811199C08091D1
:100950006D00811195C0DB9869EA88E30E945B0114
:1009600018C0813609F49EC008F48FC0823631F178
:10097000833679F40E942702682F83E30E945B018B
:1009800008C08F3609F44DC08C3C19F481E0809387
:100990006700789480917C008FBFFF91EF91BF91A9
:1009A000AF919F918F917F916F915F914F913F9107
:1009B0002F910F900FBE0F901F90189580E487B96C
:1009C00086B1806C86B93699FECF349864B175B122
:1009D00085B1782B665671096A398FEF780708F070
:1009E00081C0769567957695679582E30E945B0155
:1009F000D0CF959860EE8BE30E945B01CACF8091C7
:100A00006C008111A9CF80916E008111A5CF8091DA
:100A10006D008111A1CFDB9A68EA88E30E945B0137
:100A2000B8CF809165008823D9F010926500C49AF0
:100A3000AB9A85B5886085BD89B7806889BF89B75D
:100A40008F7B89BF109275001092740081E08093B3
:100A50006B0085B5876085BD6DEA8AE30E945B0106
:100A6000DF986BEA87E30E945B011092620062EA02
:100A700089E30E945B0167EA87E30E945B0189CFFB
:100A800068EA88E30E945B0184CF8F3109F081CF4F
:100A9000109267007ECFCA9920C066EA86E30E9462
:100AA0005B0177CF81E487B986B1806C86B93699CE
:100AB000FECF349864B175B185B1782B6656710953
:100AC0006A398FEF780730F47695679581E30E9455
:100AD0005B015FCF60E070E0F9CF60EA86E30E94DF
:100AE0005B0157CF60E070E080CF1F920F920FB68E
:100AF0000F9211242F933F934F935F936F937F93A4
:100B00008F939F93AF93BF93CF93DF93EF93FF9315
:100B10008FB780937C00F894809179008F5F8A3042
:100B2000C9F080937900789480917C008FBFFF9109
:100B3000EF91DF91CF91BF91AF919F918F917F9175
:100B40006F915F914F913F912F910F900FBE0F903A
:100B50001F90189510927900809178008F5F809394
:100B600078000E942702D0916200D11152C0C0E0EB
:100B700090916E0091111FC09091640091111BC063
:100B80002091760030917700789490917C009FBFFF
:100B90003327409176005091770090916700992318
:100BA00021F02417350709F4FFCF109267009FB793
:100BB00090937C00F894482F6C2F8D2F0E949E00FC
:100BC00080917800833009F0AECF10927800809148
:100BD0007300882369F080916200882349F0809136
:100BE0007100909172008734934008F446C0AE9A29
:100BF00080917000882309F496CFCA9B94CF81E03E
:100C000080936F001092700066EE86E30E945B0195
:100C10008ACF91E497B996B1906C96B93699FECF88
:100C2000349824B135B195B1392B265631092A397A
:100C30009FEF3907D8F436952795D22F90E497B9CE
:100C400096B1906C96B93699FECF349864B175B16F
:100C500095B1792B665671096A392FEF720748F4FE
:100C60007695679576956795C62F82CF20E030E020
:100C7000E4CF60E070E0C62F7BCF8FB780937C001D
:100C8000F894E199FECF80917100909172009FBB22
:100C90008EBBDDBBE29AE19A809171009091720067
:100CA00001969093720080937100E199FECF9FBBF3
:100CB0008EBBCDBBE29AE19A809171009091720057
:100CC00001969093720080937100789480917C00DB
:100CD0008FBF8ECF1F920F920FB60F9211242F93BA
:100CE0003F934F935F936F937F938F939F93AF93B4
:100CF000BF93EF93FF938FB780937C00F89480911C
:100D0000760090917700019690937700809376001B
:100D10008B3221E0920709F476C008F1823721E096
:100D20009207C1F18C3721E0920741F18133914064
:100D300009F44DC0789480917C008FBFFF91EF91B2
:100D4000BF91AF919F918F917F916F915F914F91E3
:100D50003F912F910F900FBE0F901F901895853FD8
:100D6000910509F43FC0843021E0920761F0833699
:100D7000910501F781E080937300DCCFAF98AE98C6
:100D8000AD98AC98D7CFDB9869EA88E30E945B0105
:100D9000AD9AD0CF10926500C49AAB9A85B58860A1
:100DA00085BD89B7806889BF89B78F7B89BF10925D
:100DB00075001092740081E080936B0085B58760A8
:100DC00085BD6DEA8AE30E945B01AF9AB3CF1092B2
:100DD000700080916F008111ADCF60EA86E30E94C0
:100DE0005B01A8CF80916E00882309F4A3CF809186
:100DF0006D00882309F49ECFAC98DF9A6AEA87E3F6
:100E00000E945B0197CFDF986BEA87E30E945B014A
:100E1000AC9A1092620062EA89E30E945B01109230
:100E20007300959A949880916E00882309F482CF7C
:100E300081E080937000AE9A7DCF1F920F920FB623
:100E40000F9211242F933F934F935F936F937F9350
:100E50008F939F93AF93BF93EF93FF938FB780933D
:100E60007C00F894809174009091750001969093A5
:100E70007500809374008B309105D8F020916B0041
:100E8000213061F1223051F420916A00211139C0E2
:100E9000209169002223E9F1B29B48C0C39748F032
:100EA00085B5887F85BD1092680010926A00109207
:100EB0006900789480917C008FBFFF91EF91BF9182
:100EC000AF919F918F917F916F915F914F913F91E2
:100ED0002F910F900FBE0F901F901895C498AB984C
:100EE00085B5887F85BD80916400882311F380914A
:100EF0007600909177000396909361008093600054
:100F0000D8CF8299CBCF85B5887F85BD0E948803D5
:100F1000EACF20916800222309F4C0CF8399BECF85
:100F200085B5887F85BD0E944B03DDCF85B5887F61
:100F300085BD109269008FB780937C00F8948091F2
:100F40006E00882399F081E080936D0080EF90E03F
:100F500090937700809376008EB585608EBD949ACD
:100F6000DB9A68EA88E30E945B01AD9878948091EF
:100F70007C008FBF6AEE80E30E945B01B4CFD19802
:100F8000D098D298D598BC98A398BA988B988A98FC
:100F90008AB388618ABB8AB3806C8ABB81B3806361
:100FA00081BB959A949884B3806F84BBBC9AA39AB2
:100FB00085B78A7F85BF85B78A6085BF84B78F7BF9
:100FC00084BF8BB7806E8BBF87E189B98AB188698E
:100FD0008AB980E880B986B7846086BF86B18760A9
:100FE00086B983B7886083BF8FEE8CBF88B7826075
:100FF00088BF89B7826089BF8EB588608EBD88E35F
:101000008BBD8FE38ABD88B7806188BF89B7806157
:1010100089BF8FE883BD88B7806C88BF89B7806C33
:1010200089BF789469E18CE30E945B01AF9AAE9A24
:0A103000AD9AAC9AFFCFF894FFCF01
:04103A00F0FF0100C2
:00000001FF
